:100000000C942A000C9447000C9447000C94470071
:100010000C9447000C9447000C9447000C94470044
:100020000C9447000C9447000C9447000C94470034
:100030000C9447000C9447000C9447000C94470024
:100040000C9447000C9447000C9447000C94470014
:100050000C94470011241FBECFE5D8E0DEBFCDBF12
:1000600010E0A8E6B0E001C01D92A936B107E1F7A3
:1000700010E0A0E6B0E0E8EBF8E202C005900D92D7
:10008000A836B107D9F70E9467130C945A140C9440
:100090000000EF92FF920F931F937B018C0120E0F1
:1000A00030E040E05FE40E94F50388238CF0C80153
:1000B000B70120E030E040E05FE40E94C1010E940F
:1000C00055049B01AC01205030404040504806C0D0
:1000D000C801B7010E9455049B01AC01B901CA01D6
:1000E0001F910F91FF90EF900895A0E0B0E0EBE733
:1000F000F0E00C942314DC012B01FA019C91923066
:1001000008F439C1EB018881823008F433C194309E
:1001100069F4843009F02FC111969C91119789815F
:10012000981709F428C1A0E6B0E025C1843009F48D
:1001300021C18230A9F4923009F01DC19A01AD01AC
:1001400088E0EA010990AE01E90109929E0181501F
:10015000C1F7E201898111969C918923818308C1AD
:10016000923009F407C112962D903C901397EB0141
:100170008A819B811496AD90BD90CD90DC901797AD
:10018000EC80FD800E811F819101281B390BB90184
:1001900037FF04C066277727621B730B6032710537
:1001A0000CF061C0121613066CF537014801062EDB
:1001B00004C096948794779467940A94D2F721E0C8
:1001C00030E040E050E004C0220F331F441F551FB1
:1001D0006A95D2F721503040404050402E213F21B7
:1001E00040235123211531054105510521F021E01E
:1001F00030E040E050E079018A01E628F72808293C
:1002000019293CC0232BD1F1260E371E350146019A
:10021000062E04C096948794779467940A94D2F734
:1002200021E030E040E050E004C0220F331F441FC3
:10023000551F6A95D2F721503040404050402A2146
:100240003B214C215D21211531054105510521F04E
:1002500021E030E040E050E059016A01A628B728CB
:10026000C828D9280BC0821593052CF01C01AA249C
:10027000BB24650103C0EE24FF24870111969C91E5
:10028000D20111968C91981709F445C0992339F041
:10029000A80197012A193B094C095D0906C0A6016E
:1002A00095012E193F09400B510B57FD08C01182D3
:1002B0003382228224833583468357831DC081E0A5
:1002C00081833382228288279927DC01821B930B4A
:1002D000A40BB50B84839583A683B7830DC0220F2F
:1002E000331F441F551F24833583468357838281E0
:1002F000938101979383828324813581468157813D
:10030000DA01C9010197A109B1098F5F9F4FAF4F72
:10031000BF4328F30BC0918333822282EA0CFB1C7B
:100320000C1D1D1DE482F5820683178383E0808304
:10033000248135814681578157FF1AC0C901AA27F8
:1003400097FDA095BA2F81709070A070B0705695EF
:10035000479537952795822B932BA42BB52B848318
:100360009583A683B7838281938101969383828349
:10037000DF0101C0D201CD01CDB7DEB7E2E10C94BF
:100380003F14A0E2B0E0E7ECF1E00C942F14698395
:100390007A838B839C832D833E834F835887E9E048
:1003A000EE2EF12CEC0EFD1ECE010196B7010E943F
:1003B0007E058E010F5E1F4FCE010596B8010E948B
:1003C0007E058A8991E089278A8BC701B801AE0131
:1003D000475E5F4F0E9475000E94A904A096E6E068
:1003E0000C944B14A0E2B0E0E8EFF1E00C942F1471
:1003F00069837A838B839C832D833E834F835887C5
:10040000F9E0EF2EF12CEC0EFD1ECE010196B701A6
:100410000E947E058E010F5E1F4FCE010596B8012A
:100420000E947E05C701B801AE01475E5F4F0E9482
:1004300075000E94A904A096E6E00C944B14A0E27B
:10044000B0E0E5E2F2E00C94231469837A838B83B5
:100450009C832D833E834F835887CE010196BE0136
:10046000675F7F4F0E947E05CE010596BE016F5EDD
:100470007F4F0E947E059985923088F0898982306D
:10048000C8F0943019F4823051F404C0843029F457
:10049000923081F480E690E0C6C0923049F420E0CA
:1004A0009A858A89981321E02A87CE010996BBC0D4
:1004B000823049F420E09A858A89981321E02A8BBA
:1004C000CE014196B0C02D843E844F8458886D88FB
:1004D0007E888F88988CEE24FF248701AA24BB2471
:1004E000650140E050E060E070E0E0E0F0E0C10174
:1004F00081709070892BE9F0E60CF71C081D191D1E
:100500009A01AB012A0D3B1D4C1D5D1D80E090E062
:10051000A0E0B0E0E614F7040805190520F481E036
:1005200090E0A0E0B0E0BA01A901480F591F6A1F8E
:100530007B1FAA0CBB1CCC1CDD1C97FE08C081E0F5
:1005400090E0A0E0B0E0A82AB92ACA2ADB2A3196B6
:10055000E032F10549F0660C771C881C991C569412
:10056000479437942794C3CFFA85EA892B893C892D
:100570008B859C85280F391F2E5F3F4F17C0CA01FE
:1005800081709070892B61F016950795F794E79428
:1005900080E090E0A0E0B0E8E82AF92A0A2B1B2BC3
:1005A00076956795579547952F5F3F4F77FDE7CF36
:1005B0000CC0440F551F661F771F17FD4160EE0CDE
:1005C000FF1C001F111F21503040403090E05907A0
:1005D00090E0690790E4790760F32B8F3C8FDB0193
:1005E000CA018F779070A070B07080349105A1051A
:1005F000B10561F447FD0AC0E114F10401051105DC
:1006000029F0405C5F4F6F4F7F4F40781A8EFE1786
:1006100011F081E08A8F4D8F5E8F6F8F78A383E01A
:10062000898FCE0149960E94A904A096E2E10C941C
:100630003F14A8E1B0E0EFE1F3E00C942B146983E0
:100640007A838B839C832D833E834F835887B9E0C5
:10065000EB2EF12CEC0EFD1ECE010196B7010E948F
:100660007E058E010F5E1F4FCE010596B8010E94D8
:100670007E052985223008F47EC03989323010F495
:10068000B8017CC08A859A8989278A87243011F02D
:10069000223031F4231709F06EC060E670E06EC0BE
:1006A000343039F41D861E861F86188A1C861B86E8
:1006B00004C0323021F484E08987B7015FC02B8504
:1006C0003C858B899C89281B390B3C872B87ED84C3
:1006D000FE840F851889AD88BE88CF88D88CEA142F
:1006E000FB040C051D0540F4EE0CFF1C001F111F40
:1006F000215030403C872B8720E030E040E050E044
:1007000080E090E0A0E0B0E460E070E0EA14FB0478
:100710000C051D0540F0282B392B4A2B5B2BEA18C2
:10072000FB080C091D09B695A79597958795EE0CC2
:10073000FF1C001F111F6F5F7F4F6F31710531F775
:10074000DA01C9018F779070A070B0708034910584
:10075000A105B10561F427FD0AC0E114F10401050A
:10076000110529F0205C3F4F4F4F5F4F20782D87B8
:100770003E874F87588BBE01675F7F4FCB010E943A
:10078000A9046896EAE00C944714A8E1B0E0EBEC09
:10079000F3E00C942F1469837A838B839C832D83DD
:1007A0003E834F83588789E0E82EF12CEC0EFD1E26
:1007B000CE010196B7010E947E058E010F5E1F4F8C
:1007C000CE010596B8010E947E058985823040F0F1
:1007D0008989823028F0C701B8010E94F60501C05E
:1007E0008FEF6896E6E00C944B14A8E1B0E0EBEFD5
:1007F000F3E00C942F1469837A838B839C832D837D
:100800003E834F83588789E0E82EF12CEC0EFD1EC5
:10081000CE010196B7010E947E058E010F5E1F4F2B
:10082000CE010596B8010E947E058985823040F090
:100830008989823028F0C701B8010E94F60501C0FD
:100840008FEF6896E6E00C944B14A8E1B0E0EBE281
:10085000F4E00C942F1469837A838B839C832D831B
:100860003E834F83588789E0E82EF12CEC0EFD1E65
:10087000CE010196B7010E947E058E010F5E1F4FCB
:10088000CE010596B8010E947E058985823040F030
:100890008989823028F0C701B8010E94F60501C09D
:1008A00081E06896E6E00C944B14ACE0B0E0EBE538
:1008B000F4E00C94331469837A838B839C83CE0198
:1008C0000196BE016B5F7F4F0E947E058D81823055
:1008D00061F1823050F1843021F48E81882351F10E
:1008E0002EC02F81388537FD20C06E812F31310514
:1008F0001CF06623F9F023C08EE190E0821B930B7D
:1009000029853A854B855C8504C056954795379572
:1009100027958A95D2F76623B1F05095409530958A
:1009200021953F4F4F4F5F4F0EC020E030E040E039
:1009300050E009C02FEF3FEF4FEF5FE704C020E02A
:1009400030E040E050E8B901CA012C96E2E00C9496
:100950004F14DF92EF92FF920F931F93FC01E480FC
:10096000F58006811781D1808081823048F480E053
:1009700090E0A0E1B0E0E82AF92A0A2B1B2BA5C0E1
:10098000843009F49FC0823021F4EE24FF248701D3
:1009900005C0E114F1040105110519F4E0E0F0E0EF
:1009A00096C0628173819FEF623879070CF05BC05B
:1009B00022E83FEF261B370B2A3131052CF020E0CF
:1009C00030E040E050E02AC0B801A701022E04C088
:1009D00076956795579547950A94D2F781E090E010
:1009E000A0E0B0E004C0880F991FAA1FBB1F2A9582
:1009F000D2F70197A109B1098E219F21A023B1232C
:100A00000097A105B10521F081E090E0A0E0B0E001
:100A10009A01AB01282B392B4A2B5B2BDA01C90138
:100A20008F779070A070B07080349105A105B105EA
:100A300039F427FF09C0205C3F4F4F4F5F4F04C080
:100A4000215C3F4F4F4F5F4FE0E0F0E02030A0E0EF
:100A50003A07A0E04A07A0E45A0710F0E1E0F0E00E
:100A600079018A0127C06038710564F5FB01E158FE
:100A7000FF4FD801C7018F779070A070B07080349D
:100A80009105A105B10539F4E7FE0DC080E490E0C1
:100A9000A0E0B0E004C08FE390E0A0E0B0E0E80E9A
:100AA000F91E0A1F1B1F17FF05C016950795F7941F
:100AB000E794319687E016950795F794E7948A9521
:100AC000D1F705C0EE24FF248701EFEFF0E06E2F91
:100AD000679566276795902F9F77D794DD24D794E5
:100AE0008E2F8695492F462B582F5D29B701CA01B5
:100AF0001F910F91FF90EF90DF900895FC01DB01B3
:100B0000408151812281622F6F7770E0221F22275E
:100B1000221F9381892F880F822B282F30E0991F65
:100B20009927991F11969C93119721153105A9F5C5
:100B3000411551056105710511F482E037C082E865
:100B40009FEF13969C938E9312979A01AB0167E0E7
:100B5000220F331F441F551F6A95D1F783E08C93F2
:100B60000DC0220F331F441F551F12968D919C916B
:100B70001397019713969C938E931297203080E0E1
:100B8000380780E0480780E4580758F314962D93FF
:100B90003D934D935C93179708952F3F310579F45A
:100BA000411551056105710519F484E08C93089590
:100BB00064FF03C081E08C9312C01C9210C02F57B9
:100BC000304013963C932E93129783E08C9387E0EA
:100BD000440F551F661F771F8A95D1F770641496CE
:100BE0004D935D936D937C93179708951F93DC014C
:100BF000FB019C91923008F447C08081823008F458
:100C000043C0943051F411961C91843099F5818140
:100C1000682F70E0611B71093FC0843021F0923071
:100C200031F48230B9F18181882389F12DC0119688
:100C30001C9111978230F1F081811817D9F4129626
:100C40002D913C911397828193818217930794F0A1
:100C500028173907BCF014968D919D910D90BC9189
:100C6000A02D2481358146815781281739074A07ED
:100C70005B0718F4112341F00AC082179307A407F9
:100C8000B50740F4112319F061E070E005C06FEF83
:100C90007FEF02C060E070E0CB011F910895DF9309
:100CA000CF9300D000D00F92CDB7DEB789836A838F
:100CB0004B838981843008F0D5C08A81883008F060
:100CC000D1C08981282F30E03D832C838C819D8188
:100CD0008130910509F443C02C813D8122303105DA
:100CE0002CF48C819D81009771F0BCC02C813D81DA
:100CF0002230310509F45FC08C819D8183309105DC
:100D000009F485C0AFC08B818823A1F0AAE3B0E0CD
:100D1000EAE3F0E08081482F8A81282F30E081E0EB
:100D200090E0022E02C0880F991F0A94E2F7842BEC
:100D30008C9398C0AAE3B0E0EAE3F0E08081482F0A
:100D40008A81282F30E081E090E0022E02C0880FD7
:100D5000991F0A94E2F7809584238C9383C08B813A
:100D60008823A1F0A7E3B0E0E7E3F0E08081482F1B
:100D70008A81282F30E081E090E0022E02C0880FA7
:100D8000991F0A94E2F7842B8C936CC0A7E3B0E020
:100D9000E7E3F0E08081482F8A81282F30E081E06E
:100DA00090E0022E02C0880F991F0A94E2F7809506
:100DB00084238C9357C08B818823A1F0A4E3B0E0F7
:100DC000E4E3F0E08081482F8A81282F30E081E041
:100DD00090E0022E02C0880F991F0A94E2F7842B3C
:100DE0008C9340C0A4E3B0E0E4E3F0E08081482FBE
:100DF0008A81282F30E081E090E0022E02C0880F27
:100E0000991F0A94E2F7809584238C932BC08B81E1
:100E10008823A1F0A1E3B0E0E1E3F0E08081482F76
:100E20008A81282F30E081E090E0022E02C0880FF6
:100E3000991F0A94E2F7842B8C9314C0A1E3B0E0CD
:100E4000E1E3F0E08081482F8A81282F30E081E0C3
:100E500090E0022E02C0880F991F0A94E2F7809555
:100E600084238C930F900F900F900F900F90CF9141
:100E7000DF910895DF93CF9300D000D00F92CDB7CC
:100E8000DEB789836A834B838981843008F0D5C0BB
:100E90008A81883008F0D1C08981282F30E03D83D5
:100EA0002C838C819D818130910509F443C02C8174
:100EB0003D81223031052CF48C819D81009771F0A9
:100EC000BCC02C813D812230310509F45FC08C818A
:100ED0009D818330910509F485C0AFC08B81882343
:100EE000A1F0ABE3B0E0EBE3F0E08081482F8A8132
:100EF000282F30E081E090E0022E02C0880F991F79
:100F00000A94E2F7842B8C9398C0ABE3B0E0EBE358
:100F1000F0E08081482F8A81282F30E081E090E046
:100F2000022E02C0880F991F0A94E2F7809584234D
:100F30008C9383C08B818823A1F0A8E3B0E0E8E321
:100F4000F0E08081482F8A81282F30E081E090E016
:100F5000022E02C0880F991F0A94E2F7842B8C930B
:100F60006CC0A8E3B0E0E8E3F0E08081482F8A811C
:100F7000282F30E081E090E0022E02C0880F991FF8
:100F80000A94E2F7809584238C9357C08B81882341
:100F9000A1F0A5E3B0E0E5E3F0E08081482F8A818D
:100FA000282F30E081E090E0022E02C0880F991FC8
:100FB0000A94E2F7842B8C9340C0A5E3B0E0E5E30C
:100FC000F0E08081482F8A81282F30E081E090E096
:100FD000022E02C0880F991F0A94E2F7809584239D
:100FE0008C932BC08B818823A1F0A2E3B0E0E2E3D5
:100FF000F0E08081482F8A81282F30E081E090E066
:10100000022E02C0880F991F0A94E2F7842B8C935A
:1010100014C0A2E3B0E0E2E3F0E08081482F8A81CF
:10102000282F30E081E090E0022E02C0880F991F47
:101030000A94E2F7809584238C930F900F900F9081
:101040000F900F90CF91DF910895DF93CF9300D051
:1010500000D000D0CDB7DEB78A836B838A8184301D
:1010600008F071C08B81883008F06AC08A81282F0F
:1010700030E03E832D834D815E814130510541F149
:101080008D819E818230910534F42D813E81211520
:10109000310561F052C04D815E814230510551F100
:1010A0008D819E8183309105B9F147C0E9E3F0E07D
:1010B0008081282F30E08B81882F90E0A90102C029
:1010C000559547958A95E2F7CA018170898335C0A5
:1010D000E6E3F0E08081282F30E08B81882F90E0DC
:1010E000A90102C0559547958A95E2F7CA0181701A
:1010F000898323C0E3E3F0E08081282F30E08B81F7
:10110000882F90E0A90102C0559547958A95E2F78E
:10111000CA018170898311C0E0E3F0E08081282F4B
:1011200030E08B81882F90E0A90102C0559547954A
:101130008A95E2F7CA018170898359815C8305C071
:101140008FEF8C8302C09FEF9C838C8126960FB615
:10115000F894DEBF0FBECDBFCF91DF910895DF932E
:10116000CF9300D000D0CDB7DEB789836A83898161
:10117000843090F58981282F30E03C832B838B814C
:101180009C8181309105D1F02B813C812230310549
:101190002CF48B819C81009761F01EC02B813C81D7
:1011A0002230310581F08B819C818330910581F063
:1011B00013C0EBE3F0E08A8180830EC0E8E3F0E047
:1011C0008A81808309C0E5E3F0E08A81808304C0DE
:1011D000E2E3F0E08A8180830F900F900F900F90F0
:1011E000CF91DF910895DF93CF9300D000D00F927D
:1011F000CDB7DEB78A838A818430A8F58A81282F0B
:1012000030E03D832C838C819D8181309105D1F02C
:101210002C813D81223031052CF48C819D810097F9
:1012200061F01EC02C813D812230310581F08C811E
:101230009D818330910581F013C0E9E3F0E0808166
:1012400089830EC0E6E3F0E08081898309C0E3E38F
:10125000F0E08081898304C0E0E3F0E0808189834D
:1012600099819B8301C01B828B810F900F900F90FF
:101270000F900F90CF91DF910895DF93CF9300D01F
:1012800000D0CDB7DEB789836A838981843008F0C6
:1012900072C08A81883008F06EC08981282F30E0C2
:1012A0003C832B838B819C818130910549F12B817B
:1012B0003C81223031052CF48B819C81009761F0B8
:1012C0005AC02B813C812230310571F18B819C8188
:1012D00083309105E9F14FC0ABE3B0E0EBE3F0E020
:1012E0008081482F8A81282F30E081E090E0022E13
:1012F00002C0880F991F0A94E2F784278C933BC0A1
:10130000A8E3B0E0E8E3F0E08081482F8A81282F4D
:1013100030E081E090E0022E02C0880F991F0A940D
:10132000E2F784278C9327C0A5E3B0E0E5E3F0E083
:101330008081482F8A81282F30E081E090E0022EC2
:1013400002C0880F991F0A94E2F784278C9313C078
:10135000A2E3B0E0E2E3F0E08081482F8A81282F09
:1013600030E081E090E0022E02C0880F991F0A94BD
:10137000E2F784278C930F900F900F900F90CF91EE
:10138000DF910895DF93CF9300D00F92CDB7DEB7F2
:1013900089838981843008F03EC08981282F30E01C
:1013A0003B832A838A819B8181309105E9F02A81E0
:1013B0003B81223031052CF48A819B81009761F0BA
:1013C0002AC02A813B8122303105B1F08A819B817C
:1013D00083309105C9F01FC0ABE3B0E0EBE3F0E070
:1013E000808180958C9317C0A8E3B0E0E8E3F0E03B
:1013F000808180958C930FC0A5E3B0E0E5E3F0E039
:10140000808180958C9307C0A2E3B0E0E2E3F0E036
:10141000808180958C930F900F900F90CF91DF91EA
:101420000895DF93CF9300D000D0CDB7DEB7898386
:101430006A838981282F30E03C832B838B819C81B8
:1014400081309105D9F02B813C81223031052CF47B
:101450008B819C81009761F022C02B813C812230DE
:10146000310591F08B819C818330910599F017C0F3
:1014700080E063E040E00E943A0711C080E062E053
:1014800040E00E943A070BC081E065E040E00E9426
:101490003A0705C081E066E040E00E943A078A8191
:1014A000982F917081E060E0492F0E943A078A816D
:1014B0008695982F917081E061E0492F0E943A074C
:1014C0008A8186958695982F917081E062E0492FF8
:1014D0000E943A078A81869586958695982F917005
:1014E00081E064E0492F0E943A070F900F900F901F
:1014F0000F90CF91DF9108950F931F93DF93CF93B8
:10150000CDB7DEB7CC54D0400FB6F894DEBF0FBED7
:10151000CDBF80E063E041E00E944F0680E062E0E2
:1015200041E00E944F0681E064E041E00E944F06E6
:1015300081E062E041E00E944F0681E061E041E02D
:101540000E944F0681E060E041E00E944F06FE01EC
:10155000E75BFF4F80E090E0A8EFB1E480839183E8
:10156000A283B3838E010B5B1F4FFE01E75BFF4F2E
:10157000608171818281938120E030E04AE755E407
:101580000E941F02DC01CB01F80180839183A283BA
:10159000B383FE01EB5BFF4F608171818281938198
:1015A00020E030E040E85FE30E942504882344F413
:1015B000FE01ED5BFF4F81E090E09183808364C08A
:1015C000FE01EB5BFF4F608171818281938120E09E
:1015D0003FEF4FE757E40E94C50318160CF043C0D5
:1015E000FE01E75BFF4F608171818281938120E082
:1015F00030E040E251E40E941F02DC01CB018E0189
:101600000D5B1F4FBC01CD010E944900DC01CB01E5
:10161000F801918380831FC0FE01EF5BFF4F80E9DB
:1016200091E091838083FE01EF5BFF4F8081918188
:101630000197F1F7FE01EF5BFF4F91838083DE019D
:10164000AD5BBF4FFE01ED5BFF4F80819181019744
:1016500011969C938E93FE01ED5BFF4F80819181EB
:101660000097D1F624C08E010D5B1F4FFE01EB5B8E
:10167000FF4F60817181828193810E944900DC016A
:10168000CB01F80191838083FE01ED5BFF4F8081E8
:101690009181FE01FF9691838083FE01FF968081F8
:1016A00091810197F1F7FE01FF969183808380E29B
:1016B0000E94690D80E20E94690D80E80E94690D18
:1016C00080E090E0A0E2B2E48BAF9CAFADAFBEAFE4
:1016D0006BAD7CAD8DAD9EAD2BEA3AEA4AEA50E4A3
:1016E0000E941F02DC01CB018FAB98AFA9AFBAAF4C
:1016F0006FA978AD89AD9AAD20E030E040E85FE3B6
:101700000E94250488231CF481E08EAB91C06FA950
:1017100078AD89AD9AAD20E030E04FE753E40E9408
:10172000C50318160CF07BC06BAD7CAD8DAD9EADC6
:1017300020E030E04AE754E40E941903DC01CB01C9
:101740008AAB9BABACABBDAB6AA97BA98CA99DA9AD
:1017500020E030E04AE755E40E941F02DC01CB01A3
:101760008EA79FA7A8ABB9AB6EA57FA588A999A99D
:1017700020E030E040E85FE30E94250488232CF459
:1017800081E090E09DA78CA73FC06EA57FA588A9AA
:1017900099A920E03FEF4FE757E40E94C5031816D0
:1017A0004CF56AA97BA98CA99DA920E030E040E214
:1017B00051E40E941F02DC01CB01BC01CD010E945B
:1017C0004900DC01CB019DA78CA70FC080E991E007
:1017D0009BA78AA78AA59BA50197F1F79BA78AA734
:1017E0008CA59DA501979DA78CA78CA59DA500976D
:1017F00069F724C06EA57FA588A999A90E94490010
:10180000DC01CB019DA78CA78CA59DA599A788A7D6
:1018100088A599A50197F1F799A788A70FC06FA987
:1018200078AD89AD9AAD0E944900DC01CB018EAB49
:101830008EA98FA38FA18A95F1F78FA380E00E94D4
:10184000690D80EC0E94690D80E090E0A0E2B2E4B6
:101850008BA39CA3ADA3BEA36BA17CA18DA19EA1D4
:101860002BEA3AEA4AEA50E40E941F02DC01CB016B
:101870008F8F98A3A9A3BAA36F8D78A189A19AA1EC
:1018800020E030E040E85FE30E94250488231CF458
:1018900081E08E8F91C06F8D78A189A19AA120E0FF
:1018A00030E04FE753E40E94C50318160CF07BC0EC
:1018B0006BA17CA18DA19EA120E030E04AE754E419
:1018C0000E941903DC01CB018A8F9B8FAC8FBD8FE7
:1018D0006A8D7B8D8C8D9D8D20E030E04AE755E44C
:1018E0000E941F02DC01CB018E8B9F8BA88FB98FCA
:1018F0006E897F89888D998D20E030E040E85FE334
:101900000E94250488232CF481E090E09D8B8C8B31
:101910003FC06E897F89888D998D20E03FEF4FE72A
:1019200057E40E94C50318164CF56A8D7B8D8C8D8B
:101930009D8D20E030E040E251E40E941F02DC0176
:10194000CB01BC01CD010E944900DC01CB019D8B84
:101950008C8B0FC080E991E09B8B8A8B8A899B8955
:101960000197F1F79B8B8A8B8C899D8901979D8BC1
:101970008C8B8C899D89009769F724C06E897F893B
:10198000888D998D0E944900DC01CB019D8B8C8B49
:101990008C899D89998B888B888999890197F1F722
:1019A000998B888B0FC06F8D78A189A19AA10E9415
:1019B0004900DC01CB018E8F8E8D8F878F858A95B4
:1019C000F1F78F8780E00E94690D80E10E94690D28
:1019D0008DEC9CECACECBFE38B879C87AD87BE871E
:1019E0006B857C858D859E8520E030E04AE755E457
:1019F0000E941F02DC01CB018F839887A987BA87D9
:101A00006F81788589859A8520E030E040E85FE342
:101A10000E94250488232CF481E090E09E838D832E
:101A20003FC06F81788589859A8520E03FEF4FE739
:101A300057E40E94C50318164CF56B857C858D858F
:101A40009E8520E030E040E251E40E941F02DC016C
:101A5000CB01BC01CD010E944900DC01CB019E837A
:101A60008D830FC080E991E09C838B838B819C8167
:101A70000197F1F79C838B838D819E8101979E83D3
:101A80008D838D819E81009769F714C06F81788561
:101A900089859A850E944900DC01CB019E838D8354
:101AA0008D819E819A83898389819A810197F1F73B
:101AB0009A83898381E080936800C45BDF4F0FB60F
:101AC000F894DEBF0FBECDBFCF91DF911F910F9174
:101AD0000895DF93CF93CDB7DEB7EF970FB6F894A5
:101AE000DEBF0FBECDBF8FAF80E063E040E00E945D
:101AF0003A078FAD82958F70982F917081E060E0EA
:101B0000492F0E943A078FAD829586958770982F4E
:101B1000917081E061E0492F0E943A078FAD829574
:101B2000869586958370982F917081E062E0492FA9
:101B30000E943A078FAD982F991F9927991F81E02E
:101B400064E0492F0E943A0780E062E041E00E9491
:101B50003A0780E090E0ACE4B2E48BAF9CAFADAF6D
:101B6000BEAF6BAD7CAD8DAD9EAD2BEA3AEA4AEAD5
:101B700050E40E941F02DC01CB018FAB98AFA9AFEC
:101B8000BAAF6FA978AD89AD9AAD20E030E040E8FA
:101B90005FE30E94250488231CF481E08EAB91C092
:101BA0006FA978AD89AD9AAD20E030E04FE753E4FE
:101BB0000E94C50318160CF07BC06BAD7CAD8DADDB
:101BC0009EAD20E030E04AE754E40E941903DC01B6
:101BD000CB018AAB9BABACABBDAB6AA97BA98CA993
:101BE0009DA920E030E04AE755E40E941F02DC0195
:101BF000CB018EA79FA7A8ABB9AB6EA57FA588A97F
:101C000099A920E030E040E85FE30E9425048823A2
:101C10002CF481E090E09DA78CA73FC06EA57FA526
:101C200088A999A920E03FEF4FE757E40E94C50338
:101C300018164CF56AA97BA98CA99DA920E030E073
:101C400040E251E40E941F02DC01CB01BC01CD0146
:101C50000E944900DC01CB019DA78CA70FC080E941
:101C600091E09BA78AA78AA59BA50197F1F79BA75F
:101C70008AA78CA59DA501979DA78CA78CA59DA53E
:101C8000009769F724C06EA57FA588A999A90E942D
:101C90004900DC01CB019DA78CA78CA59DA599A728
:101CA00088A788A599A50197F1F799A788A70FC0DC
:101CB0006FA978AD89AD9AAD0E944900DC01CB01D6
:101CC0008EAB8EA98FA38FA18A95F1F78FA380E0A9
:101CD00062E040E00E943A0780916800882309F49E
:101CE000EEC08FAD982F917081E060E0492F0E9487
:101CF0003A078FAD8695982F917081E061E0492F6A
:101D00000E943A078FAD86958695982F917081E055
:101D100062E0492F0E943A078FAD86958695869599
:101D2000982F917081E064E0492F0E943A0780E08B
:101D300062E041E00E943A0780E090E0ACE4B2E467
:101D40008BA39CA3ADA3BEA36BA17CA18DA19EA1DF
:101D50002BEA3AEA4AEA50E40E941F02DC01CB0176
:101D60008F8F98A3A9A3BAA36F8D78A189A19AA1F7
:101D700020E030E040E85FE30E94250488231CF463
:101D800081E08E8F91C06F8D78A189A19AA120E00A
:101D900030E04FE753E40E94C50318160CF07BC0F7
:101DA0006BA17CA18DA19EA120E030E04AE754E424
:101DB0000E941903DC01CB018A8F9B8FAC8FBD8FF2
:101DC0006A8D7B8D8C8D9D8D20E030E04AE755E457
:101DD0000E941F02DC01CB018E8B9F8BA88FB98FD5
:101DE0006E897F89888D998D20E030E040E85FE33F
:101DF0000E94250488232CF481E090E09D8B8C8B3D
:101E00003FC06E897F89888D998D20E03FEF4FE735
:101E100057E40E94C50318164CF56A8D7B8D8C8D96
:101E20009D8D20E030E040E251E40E941F02DC0181
:101E3000CB01BC01CD010E944900DC01CB019D8B8F
:101E40008C8B0FC080E991E09B8B8A8B8A899B8960
:101E50000197F1F79B8B8A8B8C899D8901979D8BCC
:101E60008C8B8C899D89009769F724C06E897F8946
:101E7000888D998D0E944900DC01CB019D8B8C8B54
:101E80008C899D89998B888B888999890197F1F72D
:101E9000998B888B0FC06F8D78A189A19AA10E9420
:101EA0004900DC01CB018E8F8E8D8F878F858A95BF
:101EB000F1F78F8780E062E040E00E943A078DEC06
:101EC0009CECACECBFE38B879C87AD87BE876B85B2
:101ED0007C858D859E8520E030E04AE755E40E94B0
:101EE0001F02DC01CB018F839887A987BA876F8196
:101EF000788589859A8520E030E040E85FE30E949C
:101F0000250488232CF481E090E09E838D833FC0DC
:101F10006F81788589859A8520E03FEF4FE757E408
:101F20000E94C50318164CF56B857C858D859E85B2
:101F300020E030E040E251E40E941F02DC01CB01CE
:101F4000BC01CD010E944900DC01CB019E838D8341
:101F50000FC080E991E09C838B838B819C810197EA
:101F6000F1F79C838B838D819E8101979E838D8366
:101F70008D819E81009769F714C06F81788589856E
:101F80009A850E944900DC01CB019E838D838D815F
:101F90009E819A83898389819A810197F1F79A8337
:101FA0008983EF960FB6F894DEBF0FBECDBFCF91F9
:101FB000DF910895DF93CF93CDB7DEB7EF970FB6DC
:101FC000F894DEBF0FBECDBF8FAF80E063E041E08D
:101FD0000E943A078FAD82958F70982F917081E0A3
:101FE00060E0492F0E943A078FAD829586958770F1
:101FF000982F917081E061E0492F0E943A078FADE0
:102000008295869586958370982F917081E062E025
:10201000492F0E943A078FAD982F991F9927991F32
:1020200081E064E0492F0E943A0780E062E041E0ED
:102030000E943A0780E090E0ACE4B2E48BAF9CAF42
:10204000ADAFBEAF6BAD7CAD8DAD9EAD2BEA3AEAC8
:102050004AEA50E40E941F02DC01CB018FAB98AF2B
:10206000A9AFBAAF6FA978AD89AD9AAD20E030E0E5
:1020700040E85FE30E94250488231CF481E08EABD6
:1020800091C06FA978AD89AD9AAD20E030E04FE7FF
:1020900053E40E94C50318160CF07BC06BAD7CADF9
:1020A0008DAD9EAD20E030E04AE754E40E94190374
:1020B000DC01CB018AAB9BABACABBDAB6AA97BA906
:1020C0008CA99DA920E030E04AE755E40E941F0258
:1020D000DC01CB018EA79FA7A8ABB9AB6EA57FA5EE
:1020E00088A999A920E030E040E85FE30E94250438
:1020F00088232CF481E090E09DA78CA73FC06EA5BB
:102100007FA588A999A920E03FEF4FE757E40E94F7
:10211000C50318164CF56AA97BA98CA99DA920E0D6
:1021200030E040E251E40E941F02DC01CB01BC011F
:10213000CD010E944900DC01CB019DA78CA70FC0F7
:1021400080E991E09BA78AA78AA59BA50197F1F753
:102150009BA78AA78CA59DA501979DA78CA78CA559
:102160009DA5009769F724C06EA57FA588A999A9A8
:102170000E944900DC01CB019DA78CA78CA59DA5E1
:1021800099A788A788A599A50197F1F799A788A786
:102190000FC06FA978AD89AD9AAD0E944900DC01EE
:1021A000CB018EAB8EA98FA38FA18A95F1F78FA358
:1021B00080E062E040E00E943A078FAD982F917076
:1021C00081E060E0492F0E943A078FAD8695982FF5
:1021D000917081E061E0492F0E943A078FAD8695AA
:1021E0008695982F917081E062E0492F0E943A070E
:1021F0008FAD869586958695982F917081E064E0E5
:10220000492F0E943A0780E062E041E00E943A07CD
:1022100080E090E0ACE4B2E48BA39CA3ADA3BEA3AA
:102220006BA17CA18DA19EA12BEA3AEA4AEA50E477
:102230000E941F02DC01CB018F8F98A3A9A3BAA330
:102240006F8D78A189A19AA120E030E040E85FE39A
:102250000E94250488231CF481E08E8F91C06F8D2D
:1022600078A189A19AA120E030E04FE753E40E94D1
:10227000C50318160CF07BC06BA17CA18DA19EA19B
:1022800020E030E04AE754E40E941903DC01CB016E
:102290008A8F9B8FAC8FBD8F6A8D7B8D8C8D9D8D32
:1022A00020E030E04AE755E40E941F02DC01CB0148
:1022B0008E8B9F8BA88FB98F6E897F89888D998D22
:1022C00020E030E040E85FE30E94250488232CF4FE
:1022D00081E090E09D8B8C8B3FC06E897F89888DDB
:1022E000998D20E03FEF4FE757E40E94C503181691
:1022F0004CF56A8D7B8D8C8D9D8D20E030E040E229
:1023000051E40E941F02DC01CB01BC01CD010E94FF
:102310004900DC01CB019D8B8C8B0FC080E991E0E3
:102320009B8B8A8B8A899B890197F1F79B8B8A8B80
:102330008C899D8901979D8B8C8B8C899D890097B9
:1023400069F724C06E897F89888D998D0E94490024
:10235000DC01CB019D8B8C8B8C899D89998B888B23
:10236000888999890197F1F7998B888B0FC06F8DB8
:1023700078A189A19AA10E944900DC01CB018E8F2E
:102380008E8D8F878F858A95F1F78F8780E062E049
:1023900040E00E943A078DEC9CECACECBFE38B87ED
:1023A0009C87AD87BE876B857C858D859E8520E06B
:1023B00030E04AE755E40E941F02DC01CB018F8325
:1023C0009887A987BA876F81788589859A8520E063
:1023D00030E040E85FE30E94250488232CF481E08C
:1023E00090E09E838D833FC06F81788589859A8533
:1023F00020E03FEF4FE757E40E94C50318164CF565
:102400006B857C858D859E8520E030E040E251E43F
:102410000E941F02DC01CB01BC01CD010E944900DA
:10242000DC01CB019E838D830FC080E991E09C830A
:102430008B838B819C810197F1F79C838B838D81AA
:102440009E8101979E838D838D819E81009769F780
:1024500014C06F81788589859A850E944900DC01C6
:10246000CB019E838D838D819E819A83898389810F
:102470009A810197F1F79A838983EF960FB6F894C2
:10248000DEBF0FBECDBFCF91DF910895DF93CF9315
:1024900000D000D00F92CDB7DEB79B838A836C83C8
:1024A0004D838C816D810E948A12198220C089819E
:1024B000282F30E08A819B81FC01E20FF31F80818D
:1024C0000E94DA0F89818F5F89838D818F5F8D8371
:1024D0008D81843160F01D828C818F5F8C838C8133
:1024E000843008F01C828C816D810E948A1289815F
:1024F000282F30E08A819B81FC01E20FF31F80814D
:102500008823A9F60F900F900F900F900F90CF9106
:10251000DF910895DF93CF9300D0CDB7DEB78983E5
:102520006A838981882329F48A8180680E94690DE1
:1025300017C08981813029F48A8180540E94690DF5
:102540000FC08981823029F48A818C560E94690DDE
:1025500007C08981833021F48A818C520E94690DE1
:102560000F900F90CF91DF910895DF93CF93CDB768
:10257000DEB763970FB6F894DEBF0FBECDBF9A8B60
:10258000898B6B8B8B89883008F098C08B89882F5A
:1025900090E0880F991F880F991F880F991F888BCB
:1025A00088898064888B88890E94690D1F860EC087
:1025B0008F85282F30E089899A89FC01E20FF31F6B
:1025C00080810E94DA0F8F858F5F8F878F8587309C
:1025D00078F382E00E94690D80E090E0A0E0B0E432
:1025E0008B879C87AD87BE876B857C858D859E8517
:1025F00020E030E04AE755E40E941F02DC01CB01F5
:102600008F839887A987BA876F81788589859A850E
:1026100020E030E040E85FE30E94250488232CF4AA
:1026200081E090E09E838D833FC06F8178858985AE
:102630009A8520E03FEF4FE757E40E94C503181644
:102640004CF56B857C858D859E8520E030E040E2F1
:1026500051E40E941F02DC01CB01BC01CD010E94AC
:102660004900DC01CB019E838D830FC080E991E09E
:102670009C838B838B819C810197F1F79C838B8357
:102680008D819E8101979E838D838D819E81009790
:1026900069F714C06F81788589859A850E94490001
:1026A000DC01CB019E838D838D819E819A838983FA
:1026B00089819A810197F1F79A83898363960FB68E
:1026C000F894DEBF0FBECDBFCF91DF910895DF93A9
:1026D000CF93CDB7DEB762970FB6F894DEBF0FBECB
:1026E000CDBF0E941A141A8A198A81E0888B1F862E
:1026F0009CC08A899989692F0E948A128FE40E945E
:10270000DA0F80E090E0AAEFB3E48B879C87AD8777
:10271000BE876B857C858D859E8520E030E04AE70D
:1027200055E40E941F02DC01CB018F839887A987A3
:10273000BA876F81788589859A8520E030E040E806
:102740005FE30E94250488232CF481E090E09E83BF
:102750008D833FC06F81788589859A8520E03FEF22
:102760004FE757E40E94C50318164CF56B857C852E
:102770008D859E8520E030E040E251E40E941F02FA
:10278000DC01CB01BC01CD010E944900DC01CB0181
:102790009E838D830FC080E991E09C838B838B8126
:1027A0009C810197F1F79C838B838D819E8101979A
:1027B0009E838D838D819E81009769F714C06F8100
:1027C000788589859A850E944900DC01CB019E832A
:1027D0008D838D819E819A83898389819A810197D6
:1027E000F1F79A83898381E00E94690D89898F5F5F
:1027F000898B8889882319F08A8981508A8B8F85F3
:10280000882319F08A898F5F8A8B8A8988232CF420
:10281000188A81E08F8781E08A8B8A8984302CF046
:1028200081E0888B1F8682E08A8B898984310CF451
:1028300060CF59CFDF93CF93CDB7DEB70E947C0A2C
:10284000CF91DF9108952F923F924F925F926F92B6
:102850007F928F929F92AF92BF92CF92DF92EF9230
:10286000FF920F931F93CF93DF93CDB7DEB7CA1BB1
:10287000DB0B0FB6F894DEBF0FBECDBF09942A88DC
:10288000398848885F846E847D848C849B84AA8484
:10289000B984C884DF80EE80FD800C811B81AA8111
:1028A000B981CE0FD11D0FB6F894DEBF0FBECDBFDC
:0828B000ED010895F894FFCF3B
:0828B800000000000000000018
:00000001FF
